{
  "contractName": "Donations",
  "abi": [
    {
      "anonymous": false,
      "inputs": [
        {
          "indexed": false,
          "internalType": "string",
          "name": "name",
          "type": "string"
        },
        {
          "indexed": false,
          "internalType": "uint256",
          "name": "target",
          "type": "uint256"
        },
        {
          "indexed": false,
          "internalType": "uint256",
          "name": "deadline",
          "type": "uint256"
        },
        {
          "indexed": false,
          "internalType": "address",
          "name": "owner",
          "type": "address"
        }
      ],
      "name": "NewFundraiser",
      "type": "event"
    },
    {
      "anonymous": false,
      "inputs": [
        {
          "indexed": false,
          "internalType": "uint256",
          "name": "amount",
          "type": "uint256"
        },
        {
          "indexed": false,
          "internalType": "address",
          "name": "claimer",
          "type": "address"
        }
      ],
      "name": "claimRefunds",
      "type": "event"
    },
    {
      "anonymous": false,
      "inputs": [
        {
          "indexed": false,
          "internalType": "uint256",
          "name": "amount",
          "type": "uint256"
        },
        {
          "indexed": false,
          "internalType": "uint256",
          "name": "date",
          "type": "uint256"
        },
        {
          "indexed": false,
          "internalType": "address",
          "name": "donor",
          "type": "address"
        }
      ],
      "name": "donation",
      "type": "event"
    },
    {
      "anonymous": false,
      "inputs": [
        {
          "indexed": false,
          "internalType": "uint256",
          "name": "amount",
          "type": "uint256"
        },
        {
          "indexed": false,
          "internalType": "uint256",
          "name": "date",
          "type": "uint256"
        },
        {
          "indexed": false,
          "internalType": "address",
          "name": "owner",
          "type": "address"
        }
      ],
      "name": "withdawDonation",
      "type": "event"
    },
    {
      "inputs": [
        {
          "internalType": "uint256",
          "name": "",
          "type": "uint256"
        }
      ],
      "name": "newdonation",
      "outputs": [
        {
          "internalType": "string",
          "name": "Name",
          "type": "string"
        },
        {
          "internalType": "uint256",
          "name": "deadline",
          "type": "uint256"
        },
        {
          "internalType": "uint256",
          "name": "unclaimed_deadline",
          "type": "uint256"
        },
        {
          "internalType": "uint256",
          "name": "target",
          "type": "uint256"
        },
        {
          "internalType": "uint256",
          "name": "raisedAmount",
          "type": "uint256"
        },
        {
          "internalType": "address",
          "name": "owner",
          "type": "address"
        },
        {
          "internalType": "bool",
          "name": "status",
          "type": "bool"
        }
      ],
      "stateMutability": "view",
      "type": "function",
      "constant": true
    },
    {
      "inputs": [
        {
          "internalType": "string",
          "name": "name",
          "type": "string"
        },
        {
          "internalType": "address",
          "name": "beneficiary",
          "type": "address"
        },
        {
          "internalType": "uint256",
          "name": "_deadline",
          "type": "uint256"
        },
        {
          "internalType": "uint256",
          "name": "_target",
          "type": "uint256"
        }
      ],
      "name": "createDonation",
      "outputs": [
        {
          "internalType": "uint256",
          "name": "donationID",
          "type": "uint256"
        }
      ],
      "stateMutability": "nonpayable",
      "type": "function"
    },
    {
      "inputs": [
        {
          "internalType": "uint256",
          "name": "donationID",
          "type": "uint256"
        }
      ],
      "name": "donate",
      "outputs": [],
      "stateMutability": "payable",
      "type": "function",
      "payable": true
    },
    {
      "inputs": [
        {
          "internalType": "uint256",
          "name": "donationID",
          "type": "uint256"
        }
      ],
      "name": "withdawDonations",
      "outputs": [],
      "stateMutability": "nonpayable",
      "type": "function"
    },
    {
      "inputs": [
        {
          "internalType": "uint256",
          "name": "donationID",
          "type": "uint256"
        }
      ],
      "name": "claimRefund",
      "outputs": [],
      "stateMutability": "nonpayable",
      "type": "function"
    },
    {
      "inputs": [
        {
          "internalType": "uint256",
          "name": "donationID",
          "type": "uint256"
        },
        {
          "internalType": "address",
          "name": "_donor",
          "type": "address"
        }
      ],
      "name": "getDonorInfo",
      "outputs": [
        {
          "components": [
            {
              "internalType": "uint256",
              "name": "amount",
              "type": "uint256"
            },
            {
              "internalType": "address",
              "name": "donorAddress",
              "type": "address"
            },
            {
              "internalType": "uint256",
              "name": "donationDate",
              "type": "uint256"
            }
          ],
          "internalType": "struct Donations.Donors",
          "name": "",
          "type": "tuple"
        }
      ],
      "stateMutability": "view",
      "type": "function",
      "constant": true
    },
    {
      "inputs": [
        {
          "internalType": "uint256",
          "name": "donationID",
          "type": "uint256"
        }
      ],
      "name": "getDonors",
      "outputs": [
        {
          "internalType": "address[]",
          "name": "",
          "type": "address[]"
        }
      ],
      "stateMutability": "view",
      "type": "function",
      "constant": true
    }
  ],
  "bytecode": "0x608060405273dd870fa1b7c4700f2bd7f44238821c26f73921486000806101000a81548173ffffffffffffffffffffffffffffffffffffffff021916908373ffffffffffffffffffffffffffffffffffffffff16021790555034801561006457600080fd5b506118a4806100746000396000f3fe6080604052600436106100705760003560e01c8063a952954e1161004e578063a952954e14610118578063b222f8aa14610141578063c07c6e591461017e578063f14faf6f146101c157610070565b806329516511146100755780635b7baf64146100b25780639249ed88146100db575b600080fd5b34801561008157600080fd5b5061009c60048036038101906100979190610e34565b6101dd565b6040516100a99190610f51565b60405180910390f35b3480156100be57600080fd5b506100d960048036038101906100d49190610e34565b610287565b005b3480156100e757600080fd5b5061010260048036038101906100fd9190611004565b61056b565b60405161010f919061109b565b60405180910390f35b34801561012457600080fd5b5061013f600480360381019061013a9190610e34565b61068d565b005b34801561014d57600080fd5b50610168600480360381019061016391906110b6565b610867565b6040516101759190611147565b60405180910390f35b34801561018a57600080fd5b506101a560048036038101906101a09190610e34565b610945565b6040516101b89796959493929190611225565b60405180910390f35b6101db60048036038101906101d69190610e34565b610a3c565b005b606060006001600084815260200190815260200160002090508060070180548060200260200160405190810160405280929190818152602001828054801561027a57602002820191906000526020600020905b8160009054906101000a900473ffffffffffffffffffffffffffffffffffffffff1673ffffffffffffffffffffffffffffffffffffffff1681526020019060010190808311610230575b5050505050915050919050565b6000600160008381526020019081526020016000209050600115158160050160149054906101000a900460ff161515146102f6576040517f08c379a00000000000000000000000000000000000000000000000000000000081526004016102ed9061130d565b60405180910390fd5b8060010154421161033c576040517f08c379a000000000000000000000000000000000000000000000000000000000815260040161033390611379565b60405180910390fd5b8060030154816004015410610386576040517f08c379a000000000000000000000000000000000000000000000000000000000815260040161037d906113e5565b60405180910390fd5b60008160060160003373ffffffffffffffffffffffffffffffffffffffff1673ffffffffffffffffffffffffffffffffffffffff168152602001908152602001600020600001541161040d576040517f08c379a000000000000000000000000000000000000000000000000000000000815260040161040490611451565b60405180910390fd5b60008160060160003373ffffffffffffffffffffffffffffffffffffffff1673ffffffffffffffffffffffffffffffffffffffff1681526020019081526020016000206000015490508082600401600082825461046a91906114a0565b9250508190555060008260040154141561049c5760008260050160146101000a81548160ff0219169083151502179055505b60008260060160003373ffffffffffffffffffffffffffffffffffffffff1673ffffffffffffffffffffffffffffffffffffffff168152602001908152602001600020600001819055503373ffffffffffffffffffffffffffffffffffffffff166108fc829081150290604051600060405180830381858888f1935050505015801561052c573d6000803e3d6000fd5b507ff2f48415bf111d8f6456a25fff32af56cee4203aa9a78548f29e475035a9f1b5813360405161055e9291906114d4565b60405180910390a1505050565b600060026000815480929190610580906114fd565b919050559050600060016000838152602001908152602001600020905086868260000191906105b0929190610d1a565b5083426105bd9190611546565b816001018190555061012c846105d39190611546565b8160020181905550828160030181905550848160050160006101000a81548173ffffffffffffffffffffffffffffffffffffffff021916908373ffffffffffffffffffffffffffffffffffffffff16021790555060018160050160146101000a81548160ff0219169083151502179055507f0e58991f4cd1b2872ff7c8580e89e4c9ae8501b15f78ab16d647f1135e7a41ec878785873360405161067b9594939291906115d8565b60405180910390a15095945050505050565b6000600160008381526020019081526020016000209050600115158160050160149054906101000a900460ff161515146106fc576040517f08c379a00000000000000000000000000000000000000000000000000000000081526004016106f390611672565b60405180910390fd5b80600101544211610742576040517f08c379a0000000000000000000000000000000000000000000000000000000008152600401610739906116de565b60405180910390fd5b806003015481600401541161078c576040517f08c379a00000000000000000000000000000000000000000000000000000000081526004016107839061174a565b60405180910390fd5b60008160050160146101000a81548160ff021916908315150217905550600081600401549050600082600401819055508160050160009054906101000a900473ffffffffffffffffffffffffffffffffffffffff1673ffffffffffffffffffffffffffffffffffffffff166108fc829081150290604051600060405180830381858888f19350505050158015610826573d6000803e3d6000fd5b507f08c5abd9cb32b576f210788fa39c4aeca0a518ee8f18a37ea2e485dbf02a714081423360405161085a9392919061176a565b60405180910390a1505050565b61086f610da0565b60006001600085815260200190815260200160002090508060060160008473ffffffffffffffffffffffffffffffffffffffff1673ffffffffffffffffffffffffffffffffffffffff168152602001908152602001600020604051806060016040529081600082015481526020016001820160009054906101000a900473ffffffffffffffffffffffffffffffffffffffff1673ffffffffffffffffffffffffffffffffffffffff1673ffffffffffffffffffffffffffffffffffffffff16815260200160028201548152505091505092915050565b6001602052806000526040600020600091509050806000018054610968906117d0565b80601f0160208091040260200160405190810160405280929190818152602001828054610994906117d0565b80156109e15780601f106109b6576101008083540402835291602001916109e1565b820191906000526020600020905b8154815290600101906020018083116109c457829003601f168201915b5050505050908060010154908060020154908060030154908060040154908060050160009054906101000a900473ffffffffffffffffffffffffffffffffffffffff16908060050160149054906101000a900460ff16905087565b600060016000838152602001908152602001600020905080600101544210610a99576040517f08c379a0000000000000000000000000000000000000000000000000000000008152600401610a909061184e565b60405180910390fd5b34816004016000828254610aad9190611546565b9250508190555060008160060160003373ffffffffffffffffffffffffffffffffffffffff1673ffffffffffffffffffffffffffffffffffffffff1681526020019081526020016000206000015414610b6057348160060160003373ffffffffffffffffffffffffffffffffffffffff1673ffffffffffffffffffffffffffffffffffffffff1681526020019081526020016000206000016000828254610b549190611546565b92505081905550610cdb565b348160060160003373ffffffffffffffffffffffffffffffffffffffff1673ffffffffffffffffffffffffffffffffffffffff16815260200190815260200160002060000181905550338160060160003373ffffffffffffffffffffffffffffffffffffffff1673ffffffffffffffffffffffffffffffffffffffff16815260200190815260200160002060010160006101000a81548173ffffffffffffffffffffffffffffffffffffffff021916908373ffffffffffffffffffffffffffffffffffffffff160217905550428160060160003373ffffffffffffffffffffffffffffffffffffffff1673ffffffffffffffffffffffffffffffffffffffff1681526020019081526020016000206002018190555080600701339080600181540180825580915050600190039060005260206000200160009091909190916101000a81548173ffffffffffffffffffffffffffffffffffffffff021916908373ffffffffffffffffffffffffffffffffffffffff1602179055505b7f611017d1829f75ccbf6404365d9ec32c462c65337b111f0ab71b1b723ad0316c344233604051610d0e9392919061176a565b60405180910390a15050565b828054610d26906117d0565b90600052602060002090601f016020900481019282610d485760008555610d8f565b82601f10610d6157803560ff1916838001178555610d8f565b82800160010185558215610d8f579182015b82811115610d8e578235825591602001919060010190610d73565b5b509050610d9c9190610dd7565b5090565b604051806060016040528060008152602001600073ffffffffffffffffffffffffffffffffffffffff168152602001600081525090565b5b80821115610df0576000816000905550600101610dd8565b5090565b600080fd5b600080fd5b6000819050919050565b610e1181610dfe565b8114610e1c57600080fd5b50565b600081359050610e2e81610e08565b92915050565b600060208284031215610e4a57610e49610df4565b5b6000610e5884828501610e1f565b91505092915050565b600081519050919050565b600082825260208201905092915050565b6000819050602082019050919050565b600073ffffffffffffffffffffffffffffffffffffffff82169050919050565b6000610eb882610e8d565b9050919050565b610ec881610ead565b82525050565b6000610eda8383610ebf565b60208301905092915050565b6000602082019050919050565b6000610efe82610e61565b610f088185610e6c565b9350610f1383610e7d565b8060005b83811015610f44578151610f2b8882610ece565b9750610f3683610ee6565b925050600181019050610f17565b5085935050505092915050565b60006020820190508181036000830152610f6b8184610ef3565b905092915050565b600080fd5b600080fd5b600080fd5b60008083601f840112610f9857610f97610f73565b5b8235905067ffffffffffffffff811115610fb557610fb4610f78565b5b602083019150836001820283011115610fd157610fd0610f7d565b5b9250929050565b610fe181610ead565b8114610fec57600080fd5b50565b600081359050610ffe81610fd8565b92915050565b6000806000806000608086880312156110205761101f610df4565b5b600086013567ffffffffffffffff81111561103e5761103d610df9565b5b61104a88828901610f82565b9550955050602061105d88828901610fef565b935050604061106e88828901610e1f565b925050606061107f88828901610e1f565b9150509295509295909350565b61109581610dfe565b82525050565b60006020820190506110b0600083018461108c565b92915050565b600080604083850312156110cd576110cc610df4565b5b60006110db85828601610e1f565b92505060206110ec85828601610fef565b9150509250929050565b6110ff81610dfe565b82525050565b60608201600082015161111b60008501826110f6565b50602082015161112e6020850182610ebf565b50604082015161114160408501826110f6565b50505050565b600060608201905061115c6000830184611105565b92915050565b600081519050919050565b600082825260208201905092915050565b60005b8381101561119c578082015181840152602081019050611181565b838111156111ab576000848401525b50505050565b6000601f19601f8301169050919050565b60006111cd82611162565b6111d7818561116d565b93506111e781856020860161117e565b6111f0816111b1565b840191505092915050565b61120481610ead565b82525050565b60008115159050919050565b61121f8161120a565b82525050565b600060e082019050818103600083015261123f818a6111c2565b905061124e602083018961108c565b61125b604083018861108c565b611268606083018761108c565b611275608083018661108c565b61128260a08301856111fb565b61128f60c0830184611216565b98975050505050505050565b7f4e6f206163746976652063616d706169676e20746f20636c61696d416464726560008201527f737320726566756e642066726f6d000000000000000000000000000000000000602082015250565b60006112f7602e8361116d565b91506113028261129b565b604082019050919050565b60006020820190508181036000830152611326816112ea565b9050919050565b7f646561646c696e652068617665206e6f7420656c617073656400000000000000600082015250565b600061136360198361116d565b915061136e8261132d565b602082019050919050565b6000602082019050818103600083015261139281611356565b9050919050565b7f726169736564416d6f756e742068617320206578636565642074617267657400600082015250565b60006113cf601f8361116d565b91506113da82611399565b602082019050919050565b600060208201905081810360008301526113fe816113c2565b9050919050565b7f796f752068617665206e6f2061637469766520446f6e6174696f6e0000000000600082015250565b600061143b601b8361116d565b915061144682611405565b602082019050919050565b6000602082019050818103600083015261146a8161142e565b9050919050565b7f4e487b7100000000000000000000000000000000000000000000000000000000600052601160045260246000fd5b60006114ab82610dfe565b91506114b683610dfe565b9250828210156114c9576114c8611471565b5b828203905092915050565b60006040820190506114e9600083018561108c565b6114f660208301846111fb565b9392505050565b600061150882610dfe565b91507fffffffffffffffffffffffffffffffffffffffffffffffffffffffffffffffff82141561153b5761153a611471565b5b600182019050919050565b600061155182610dfe565b915061155c83610dfe565b9250827fffffffffffffffffffffffffffffffffffffffffffffffffffffffffffffffff0382111561159157611590611471565b5b828201905092915050565b82818337600083830152505050565b60006115b7838561116d565b93506115c483858461159c565b6115cd836111b1565b840190509392505050565b600060808201905081810360008301526115f38187896115ab565b9050611602602083018661108c565b61160f604083018561108c565b61161c60608301846111fb565b9695505050505050565b7f4e6f2061637469766520446f6e6174696f6e0000000000000000000000000000600082015250565b600061165c60128361116d565b915061166782611626565b602082019050919050565b6000602082019050818103600083015261168b8161164f565b9050919050565b7f646561646c696e65206e6f742079657420667566696c6c656400000000000000600082015250565b60006116c860198361116d565b91506116d382611692565b602082019050919050565b600060208201905081810360008301526116f7816116bb565b9050919050565b7f2074617267657420686173206e6f74206265656e206d65740000000000000000600082015250565b600061173460188361116d565b915061173f826116fe565b602082019050919050565b6000602082019050818103600083015261176381611727565b9050919050565b600060608201905061177f600083018661108c565b61178c602083018561108c565b61179960408301846111fb565b949350505050565b7f4e487b7100000000000000000000000000000000000000000000000000000000600052602260045260246000fd5b600060028204905060018216806117e857607f821691505b602082108114156117fc576117fb6117a1565b5b50919050565b7f646561646c696e652068617320656c6170736564000000000000000000000000600082015250565b600061183860148361116d565b915061184382611802565b602082019050919050565b600060208201905081810360008301526118678161182b565b905091905056fea2646970667358221220ee4e50295b5bc6694e92b986716e1856d79632325530ebf7a314a9248ff1860a64736f6c634300080b0033",
  "immutableReferences": {},
  "source": "// SPDX-License-Identifier: GPL-3.0\r\n\r\npragma solidity ^0.8.11;\r\n\r\ncontract Donations{\r\n\r\n  event donation (uint amount,uint date, address donor);\r\n  event NewFundraiser( string name, uint target, uint deadline, address owner);\r\n  event withdawDonation(uint amount, uint date, address owner);\r\n  event claimRefunds(uint amount, address claimer);\r\n\r\n\r\naddress claimAddress = 0xdD870fA1b7C4700F2BD7f44238821C26f7392148;\r\n\r\nstruct Donors{\r\n    uint amount;\r\n    address donorAddress;\r\n    uint donationDate;\r\n    }\r\n\r\nstruct NewDonation{\r\n    string Name;\r\n    uint  deadline;\r\n    uint unclaimed_deadline ;\r\n    uint  target;\r\n    uint raisedAmount;\r\n    address  owner;\r\n    bool status;\r\n    mapping(address => Donors) donors;\r\n    address[]funders; \r\n  }\r\n\r\nmapping(uint => NewDonation) public newdonation;\r\n\r\nuint numDonations;\r\n\r\nfunction createDonation(string calldata name, address beneficiary, uint _deadline, uint _target) external returns(uint donationID) {\r\ndonationID =numDonations++;\r\nNewDonation storage d = newdonation[donationID];\r\n  d.Name= name;\r\n d.deadline =block.timestamp + _deadline;\r\n d.unclaimed_deadline = _deadline + 300;\r\n d.target =_target;\r\n d.owner =  beneficiary;\r\n d.status =true;\r\n\r\n emit NewFundraiser(name,_target,_deadline,msg.sender);\r\n }\r\n\r\n\r\nfunction donate(uint donationID) payable external {\r\nNewDonation storage newdonate = newdonation[donationID];\r\nrequire(block.timestamp < newdonate.deadline, \"deadline has elapsed\");\r\nnewdonate.raisedAmount += msg.value;\r\nif(newdonate.donors[msg.sender].amount !=0){\r\nnewdonate.donors[msg.sender].amount+=msg.value;\r\n}\r\nelse{\r\n    newdonate.donors[msg.sender].amount=msg.value;\r\n    newdonate.donors[msg.sender].donorAddress=msg.sender;\r\n    newdonate.donors[msg.sender].donationDate=block.timestamp;\r\n    newdonate.funders.push(msg.sender);\r\n}\r\nemit donation(msg.value,block.timestamp,msg.sender);\r\n}\r\n\r\nfunction withdawDonations(uint donationID) external {\r\n  NewDonation storage newdonate = newdonation[donationID];\r\n    require(newdonate.status == true,\"No active Donation\");\r\n    require(block.timestamp > newdonate.deadline, \"deadline not yet fufilled\");\r\n    require(newdonate.raisedAmount > newdonate.target, \" target has not been met\");\r\n    newdonate.status =false;\r\n    uint  amount= newdonate.raisedAmount;\r\n     newdonate.raisedAmount =0;\r\n    payable(newdonate.owner).transfer(amount);\r\n  emit withdawDonation (amount,block.timestamp,msg.sender);\r\n}\r\n\r\nfunction claimRefund(uint donationID) external {\r\n   NewDonation storage newdonate = newdonation[donationID];\r\n    require(newdonate.status == true,\"No active campaign to claimAddress refund from\");\r\n    require(block.timestamp > newdonate.deadline,\"deadline have not elapsed\");\r\n    require(newdonate.raisedAmount < newdonate.target, \"raisedAmount has  exceed target\");\r\n    require(newdonate.donors[msg.sender].amount > 0, \"you have no active Donation\");\r\n    uint amount= newdonate.donors[msg.sender].amount;\r\n   newdonate.raisedAmount -=amount;\r\n    if(newdonate.raisedAmount ==0){\r\n    newdonate.status =false;\r\n    }\r\n    newdonate.donors[msg.sender].amount =0;\r\n    payable(msg.sender).transfer(amount);\r\n  emit claimRefunds (amount,msg.sender);\r\n    \r\n}\r\n\r\n// function unclaimedDonation() external{\r\n// require(block.timestamp > unclaimed_deadline, \"unclaimed_deadline not yet met\");\r\n// require( raisedAmount > 0, \"no fund to claim\");\r\n// status =false;\r\n// uint amount =raisedAmount;\r\n// raisedAmount =0;\r\n// payable(claimAddress).transfer(amount);\r\n\r\n// }\r\n\r\n function getDonorInfo(uint donationID, address _donor) external view returns(Donors memory){\r\n  NewDonation storage newdonate = newdonation[donationID];\r\n  return newdonate.donors[_donor];\r\n}\r\n\r\nfunction getDonors(uint donationID) external view returns (address[] memory){\r\n    NewDonation storage newdonate = newdonation[donationID];\r\n    return newdonate.funders;\r\n\r\n}\r\n}\r\n",
  "sourcePath": "C:\\Users\\OYOM\\Desktop\\Donation\\contracts\\Donations.sol",
  "compiler": {
    "name": "solc",
    "version": "0.8.11+commit.d7f03943.Emscripten.clang"
  },
  "schemaVersion": "3.4.4",
  "updatedAt": "2022-01-22T09:52:49.056Z",
  "networkType": "ethereum",
  "devdoc": {
    "kind": "dev",
    "methods": {},
    "version": 1
  },
  "userdoc": {
    "kind": "user",
    "methods": {},
    "version": 1
  }
}